{
  "transactions": [
    {
      "hash": "0x2d8ff911c2484092154eae9b3306422089726eabf5d0ca3a1db19f9739498cc3",
      "transactionType": "CALL",
      "contractName": "TopHat404",
      "contractAddress": "0xFbdc80810255998549A301959A4F0D3beBFC89fB",
      "function": "approve(address,uint256)",
      "arguments": [
        "0xC36442b4a4522E871399CD717aBDD847Ab11FE88",
        "10000"
      ],
      "transaction": {
        "type": "0x02",
        "from": "0x59e8dc17aed975978c8ccb22ff69fc8954974359",
        "to": "0xfbdc80810255998549a301959a4f0d3bebfc89fb",
        "gas": "0x10487",
        "value": "0x0",
        "data": "0x095ea7b3000000000000000000000000c36442b4a4522e871399cd717abdd847ab11fe880000000000000000000000000000000000000000000000000000000000002710",
        "nonce": "0xd",
        "accessList": []
      },
      "additionalContracts": [],
      "isFixedGasLimit": false
    },
    {
      "hash": "0x514dbcd2fa0c8b92e40f2e30740f05e3899245d8be2eb3ae99a4057a1d087804",
      "transactionType": "CALL",
      "contractName": "WETH",
      "contractAddress": "0x7b79995e5f793A07Bc00c21412e50Ecae098E7f9",
      "function": "approve(address,uint256)",
      "arguments": [
        "0xC36442b4a4522E871399CD717aBDD847Ab11FE88",
        "1"
      ],
      "transaction": {
        "type": "0x02",
        "from": "0x59e8dc17aed975978c8ccb22ff69fc8954974359",
        "to": "0x7b79995e5f793a07bc00c21412e50ecae098e7f9",
        "gas": "0xf80a",
        "value": "0x0",
        "data": "0x095ea7b3000000000000000000000000c36442b4a4522e871399cd717abdd847ab11fe880000000000000000000000000000000000000000000000000000000000000001",
        "nonce": "0xe",
        "accessList": []
      },
      "additionalContracts": [],
      "isFixedGasLimit": false
    }
  ],
  "receipts": [
    {
      "transactionHash": "0x2d8ff911c2484092154eae9b3306422089726eabf5d0ca3a1db19f9739498cc3",
      "transactionIndex": "0x1b",
      "blockHash": "0xb8e4ae3b4d083fa6af8bd7c3c538b46bd45ed4300c704bb02522b39214498719",
      "blockNumber": "0x557317",
      "from": "0x59e8dc17aed975978c8CCb22Ff69fC8954974359",
      "to": "0xFbdc80810255998549A301959A4F0D3beBFC89fB",
      "cumulativeGasUsed": "0x4cfded",
      "gasUsed": "0xbc9f",
      "contractAddress": null,
      "logs": [
        {
          "address": "0xFbdc80810255998549A301959A4F0D3beBFC89fB",
          "topics": [
            "0x8c5be1e5ebec7d5bd14f71427d1e84f3dd0314c0f7b2291e5b200ac8c7c3b925",
            "0x00000000000000000000000059e8dc17aed975978c8ccb22ff69fc8954974359",
            "0x000000000000000000000000c36442b4a4522e871399cd717abdd847ab11fe88"
          ],
          "data": "0x0000000000000000000000000000000000000000000000000000000000002710",
          "blockHash": "0xb8e4ae3b4d083fa6af8bd7c3c538b46bd45ed4300c704bb02522b39214498719",
          "blockNumber": "0x557317",
          "transactionHash": "0x2d8ff911c2484092154eae9b3306422089726eabf5d0ca3a1db19f9739498cc3",
          "transactionIndex": "0x1b",
          "logIndex": "0x47",
          "removed": false
        }
      ],
      "status": "0x1",
      "logsBloom": "0x00800000000000000000000000000000000000000000000000000000020000000000000000000000000000000000000000000000000000000000000000200800000000000000800000000000000000000000000000000000000000000040000000000000000000000000000000000000000000000000000000000000000000000000000000010000000000000000000000040000000000000000000000000000020000000000000000000000000000000000000000000000000000000000000040000000000000000000000000000000000000000000000000000000000000000010000000000000000000000000000010000000000000000000000000000000",
      "type": "0x2",
      "effectiveGasPrice": "0xb2d05e11"
    },
    {
      "transactionHash": "0x514dbcd2fa0c8b92e40f2e30740f05e3899245d8be2eb3ae99a4057a1d087804",
      "transactionIndex": "0x1e",
      "blockHash": "0xb8e4ae3b4d083fa6af8bd7c3c538b46bd45ed4300c704bb02522b39214498719",
      "blockNumber": "0x557317",
      "from": "0x59e8dc17aed975978c8CCb22Ff69fC8954974359",
      "to": "0x7b79995e5f793A07Bc00c21412e50Ecae098E7f9",
      "cumulativeGasUsed": "0x51942e",
      "gasUsed": "0xb394",
      "contractAddress": null,
      "logs": [
        {
          "address": "0x7b79995e5f793A07Bc00c21412e50Ecae098E7f9",
          "topics": [
            "0x8c5be1e5ebec7d5bd14f71427d1e84f3dd0314c0f7b2291e5b200ac8c7c3b925",
            "0x00000000000000000000000059e8dc17aed975978c8ccb22ff69fc8954974359",
            "0x000000000000000000000000c36442b4a4522e871399cd717abdd847ab11fe88"
          ],
          "data": "0x0000000000000000000000000000000000000000000000000000000000000001",
          "blockHash": "0xb8e4ae3b4d083fa6af8bd7c3c538b46bd45ed4300c704bb02522b39214498719",
          "blockNumber": "0x557317",
          "transactionHash": "0x514dbcd2fa0c8b92e40f2e30740f05e3899245d8be2eb3ae99a4057a1d087804",
          "transactionIndex": "0x1e",
          "logIndex": "0x4d",
          "removed": false
        }
      ],
      "status": "0x1",
      "logsBloom": "0x00800000000000000000000000000000000000000000000000000004020000000000000000000000000000000000000000000000000000000000000000200000000000000000800000000000000000000000000000000000000000000000000000000000000000000000000000000000000000000000000000000000000000000000000000000000000000000000000000040000000000000000000000000000020000000000000000000000000000080000000000000000000000000000000040000002000000000000000000000000000000000000000000000000000000000010000000000000000000000000000010000000000000000000000000000000",
      "type": "0x2",
      "effectiveGasPrice": "0xb2d05e11"
    }
  ],
  "libraries": [],
  "pending": [],
  "returns": {
    "liquidity": {
      "internal_type": "uint128",
      "value": "0"
    },
    "amount0": {
      "internal_type": "uint256",
      "value": "0"
    },
    "amount1": {
      "internal_type": "uint256",
      "value": "0"
    },
    "tokenId": {
      "internal_type": "uint256",
      "value": "0"
    }
  },
  "timestamp": 1711901030,
  "chain": 11155111,
  "multi": false,
  "commit": "3f9a229"
}