{
  "transactions": [
    {
      "hash": "0x41f293511a8c72faabd22d549488dbd633127926b2ab464ec0d0ea71b72a9296",
      "transactionType": "CALL",
      "contractName": "TopHat404",
      "contractAddress": "0xFbdc80810255998549A301959A4F0D3beBFC89fB",
      "function": "setWhitelist(address,bool)",
      "arguments": [
        "0x59e8dc17aed975978c8CCb22Ff69fC8954974359",
        "true"
      ],
      "transaction": {
        "type": "0x02",
        "from": "0x59e8dc17aed975978c8ccb22ff69fc8954974359",
        "to": "0xfbdc80810255998549a301959a4f0d3bebfc89fb",
        "gas": "0x1090c",
        "value": "0x0",
        "data": "0x53d6fd5900000000000000000000000059e8dc17aed975978c8ccb22ff69fc89549743590000000000000000000000000000000000000000000000000000000000000001",
        "nonce": "0x9",
        "accessList": []
      },
      "additionalContracts": [],
      "isFixedGasLimit": false
    },
    {
      "hash": "0xce0ab3221b4a4a14b8ddb0510c083adf5cd7d7f3d2d2af0191f4550e91e97d56",
      "transactionType": "CALL",
      "contractName": "UniswapV3Factory",
      "contractAddress": "0x0227628f3F023bb0B980b67D528571c95c6DaC1c",
      "function": "getPool(address,address,uint24)",
      "arguments": [
        "0x7b79995e5f793A07Bc00c21412e50Ecae098E7f9",
        "0xFbdc80810255998549A301959A4F0D3beBFC89fB",
        "3000"
      ],
      "transaction": {
        "type": "0x02",
        "from": "0x59e8dc17aed975978c8ccb22ff69fc8954974359",
        "to": "0x0227628f3f023bb0b980b67d528571c95c6dac1c",
        "gas": "0x84c1",
        "value": "0x0",
        "data": "0x1698ee820000000000000000000000007b79995e5f793a07bc00c21412e50ecae098e7f9000000000000000000000000fbdc80810255998549a301959a4f0d3bebfc89fb0000000000000000000000000000000000000000000000000000000000000bb8",
        "nonce": "0xa",
        "accessList": []
      },
      "additionalContracts": [],
      "isFixedGasLimit": false
    },
    {
      "hash": "0x05aada654bc4334db22a58d143fbf3ec33f0f23e888228652d2b4abe592ebd60",
      "transactionType": "CALL",
      "contractName": "TopHat404",
      "contractAddress": "0xFbdc80810255998549A301959A4F0D3beBFC89fB",
      "function": "setWhitelist(address,bool)",
      "arguments": [
        "0xDC655F208CeCe6dA270e1c216aFEAF6c01351e1E",
        "true"
      ],
      "transaction": {
        "type": "0x02",
        "from": "0x59e8dc17aed975978c8ccb22ff69fc8954974359",
        "to": "0xfbdc80810255998549a301959a4f0d3bebfc89fb",
        "gas": "0x1090c",
        "value": "0x0",
        "data": "0x53d6fd59000000000000000000000000dc655f208cece6da270e1c216afeaf6c01351e1e0000000000000000000000000000000000000000000000000000000000000001",
        "nonce": "0xb",
        "accessList": []
      },
      "additionalContracts": [],
      "isFixedGasLimit": false
    }
  ],
  "receipts": [],
  "libraries": [],
  "pending": [
    "0x41f293511a8c72faabd22d549488dbd633127926b2ab464ec0d0ea71b72a9296",
    "0xce0ab3221b4a4a14b8ddb0510c083adf5cd7d7f3d2d2af0191f4550e91e97d56",
    "0x05aada654bc4334db22a58d143fbf3ec33f0f23e888228652d2b4abe592ebd60"
  ],
  "returns": {},
  "timestamp": 1711886530,
  "chain": 11155111,
  "multi": false,
  "commit": "3f9a229"
}