{
  "transactions": [
    {
      "hash": "0x9c9aa15a8e5eace558adbc2101221fbdbceb17e6e13dc23f8d9590e882381315",
      "transactionType": "CALL",
      "contractName": "TopHat404",
      "contractAddress": "0xFbdc80810255998549A301959A4F0D3beBFC89fB",
      "function": "setWhitelist(address,bool)",
      "arguments": [
        "0x59e8dc17aed975978c8CCb22Ff69fC8954974359",
        "true"
      ],
      "transaction": {
        "type": "0x02",
        "from": "0x59e8dc17aed975978c8ccb22ff69fc8954974359",
        "to": "0xfbdc80810255998549a301959a4f0d3bebfc89fb",
        "gas": "0x8ef3",
        "value": "0x0",
        "data": "0x53d6fd5900000000000000000000000059e8dc17aed975978c8ccb22ff69fc89549743590000000000000000000000000000000000000000000000000000000000000001",
        "nonce": "0x12",
        "accessList": []
      },
      "additionalContracts": [],
      "isFixedGasLimit": false
    },
    {
      "hash": "0x7308863efee014d33f8328e1b230bec6f22e43597062032c4e2ebd7de99513a8",
      "transactionType": "CALL",
      "contractName": "UniswapV3Factory",
      "contractAddress": "0x0227628f3F023bb0B980b67D528571c95c6DaC1c",
      "function": "getPool(address,address,uint24)",
      "arguments": [
        "0x7b79995e5f793A07Bc00c21412e50Ecae098E7f9",
        "0xFbdc80810255998549A301959A4F0D3beBFC89fB",
        "3000"
      ],
      "transaction": {
        "type": "0x02",
        "from": "0x59e8dc17aed975978c8ccb22ff69fc8954974359",
        "to": "0x0227628f3f023bb0b980b67d528571c95c6dac1c",
        "gas": "0x84c1",
        "value": "0x0",
        "data": "0x1698ee820000000000000000000000007b79995e5f793a07bc00c21412e50ecae098e7f9000000000000000000000000fbdc80810255998549a301959a4f0d3bebfc89fb0000000000000000000000000000000000000000000000000000000000000bb8",
        "nonce": "0x13",
        "accessList": []
      },
      "additionalContracts": [],
      "isFixedGasLimit": false
    },
    {
      "hash": "0x766d4434864d923058e7b9561fa0d3946f3b81b971c9804c64f9b4da50d02e1f",
      "transactionType": "CALL",
      "contractName": "TopHat404",
      "contractAddress": "0xFbdc80810255998549A301959A4F0D3beBFC89fB",
      "function": "setWhitelist(address,bool)",
      "arguments": [
        "0xDC655F208CeCe6dA270e1c216aFEAF6c01351e1E",
        "true"
      ],
      "transaction": {
        "type": "0x02",
        "from": "0x59e8dc17aed975978c8ccb22ff69fc8954974359",
        "to": "0xfbdc80810255998549a301959a4f0d3bebfc89fb",
        "gas": "0x8ef3",
        "value": "0x0",
        "data": "0x53d6fd59000000000000000000000000dc655f208cece6da270e1c216afeaf6c01351e1e0000000000000000000000000000000000000000000000000000000000000001",
        "nonce": "0x14",
        "accessList": []
      },
      "additionalContracts": [],
      "isFixedGasLimit": false
    }
  ],
  "receipts": [
    {
      "transactionHash": "0x9c9aa15a8e5eace558adbc2101221fbdbceb17e6e13dc23f8d9590e882381315",
      "transactionIndex": "0x7",
      "blockHash": "0x337dacd744f27b3b20be01b420586cae27736251b94c4929b8f86f8ec4e00905",
      "blockNumber": "0x557386",
      "from": "0x59e8dc17aed975978c8CCb22Ff69fC8954974359",
      "to": "0xFbdc80810255998549A301959A4F0D3beBFC89fB",
      "cumulativeGasUsed": "0x52b4a",
      "gasUsed": "0x677f",
      "contractAddress": null,
      "logs": [],
      "status": "0x1",
      "logsBloom": "0x00000000000000000000000000000000000000000000000000000000000000000000000000000000000000000000000000000000000000000000000000000000000000000000000000000000000000000000000000000000000000000000000000000000000000000000000000000000000000000000000000000000000000000000000000000000000000000000000000000000000000000000000000000000000000000000000000000000000000000000000000000000000000000000000000000000000000000000000000000000000000000000000000000000000000000000000000000000000000000000000000000000000000000000000000000000",
      "type": "0x2",
      "effectiveGasPrice": "0xb2d05e0e"
    },
    {
      "transactionHash": "0x7308863efee014d33f8328e1b230bec6f22e43597062032c4e2ebd7de99513a8",
      "transactionIndex": "0x8",
      "blockHash": "0x337dacd744f27b3b20be01b420586cae27736251b94c4929b8f86f8ec4e00905",
      "blockNumber": "0x557386",
      "from": "0x59e8dc17aed975978c8CCb22Ff69fC8954974359",
      "to": "0x0227628f3F023bb0B980b67D528571c95c6DaC1c",
      "cumulativeGasUsed": "0x58b68",
      "gasUsed": "0x601e",
      "contractAddress": null,
      "logs": [],
      "status": "0x1",
      "logsBloom": "0x00000000000000000000000000000000000000000000000000000000000000000000000000000000000000000000000000000000000000000000000000000000000000000000000000000000000000000000000000000000000000000000000000000000000000000000000000000000000000000000000000000000000000000000000000000000000000000000000000000000000000000000000000000000000000000000000000000000000000000000000000000000000000000000000000000000000000000000000000000000000000000000000000000000000000000000000000000000000000000000000000000000000000000000000000000000",
      "type": "0x2",
      "effectiveGasPrice": "0xb2d05e0e"
    },
    {
      "transactionHash": "0x766d4434864d923058e7b9561fa0d3946f3b81b971c9804c64f9b4da50d02e1f",
      "transactionIndex": "0x9",
      "blockHash": "0x337dacd744f27b3b20be01b420586cae27736251b94c4929b8f86f8ec4e00905",
      "blockNumber": "0x557386",
      "from": "0x59e8dc17aed975978c8CCb22Ff69fC8954974359",
      "to": "0xFbdc80810255998549A301959A4F0D3beBFC89fB",
      "cumulativeGasUsed": "0x5f2e7",
      "gasUsed": "0x677f",
      "contractAddress": null,
      "logs": [],
      "status": "0x1",
      "logsBloom": "0x00000000000000000000000000000000000000000000000000000000000000000000000000000000000000000000000000000000000000000000000000000000000000000000000000000000000000000000000000000000000000000000000000000000000000000000000000000000000000000000000000000000000000000000000000000000000000000000000000000000000000000000000000000000000000000000000000000000000000000000000000000000000000000000000000000000000000000000000000000000000000000000000000000000000000000000000000000000000000000000000000000000000000000000000000000000",
      "type": "0x2",
      "effectiveGasPrice": "0xb2d05e0e"
    }
  ],
  "libraries": [],
  "pending": [],
  "returns": {},
  "timestamp": 1711902361,
  "chain": 11155111,
  "multi": false,
  "commit": "3f9a229"
}