{
  "transactions": [
    {
      "hash": "0x319bcaa5ea68e11531c83a02089392e0b16e4b5f9d0b35b726e6334b19e8b8a5",
      "transactionType": "CALL",
      "contractName": "TopHat404",
      "contractAddress": "0xFbdc80810255998549A301959A4F0D3beBFC89fB",
      "function": "setWhitelist(address,bool)",
      "arguments": [
        "0x59e8dc17aed975978c8CCb22Ff69fC8954974359",
        "true"
      ],
      "transaction": {
        "type": "0x02",
        "from": "0x59e8dc17aed975978c8ccb22ff69fc8954974359",
        "to": "0xfbdc80810255998549a301959a4f0d3bebfc89fb",
        "gas": "0x8ef3",
        "value": "0x0",
        "data": "0x53d6fd5900000000000000000000000059e8dc17aed975978c8ccb22ff69fc89549743590000000000000000000000000000000000000000000000000000000000000001",
        "nonce": "0x19",
        "accessList": []
      },
      "additionalContracts": [],
      "isFixedGasLimit": false
    },
    {
      "hash": "0xbcfd4ebe91e250aeca65de6d8b32b0a6fbbbe7d00663d949954152880f79efbd",
      "transactionType": "CALL",
      "contractName": "UniswapV3Factory",
      "contractAddress": "0x0227628f3F023bb0B980b67D528571c95c6DaC1c",
      "function": "getPool(address,address,uint24)",
      "arguments": [
        "0x7b79995e5f793A07Bc00c21412e50Ecae098E7f9",
        "0xFbdc80810255998549A301959A4F0D3beBFC89fB",
        "3000"
      ],
      "transaction": {
        "type": "0x02",
        "from": "0x59e8dc17aed975978c8ccb22ff69fc8954974359",
        "to": "0x0227628f3f023bb0b980b67d528571c95c6dac1c",
        "gas": "0x84c1",
        "value": "0x0",
        "data": "0x1698ee820000000000000000000000007b79995e5f793a07bc00c21412e50ecae098e7f9000000000000000000000000fbdc80810255998549a301959a4f0d3bebfc89fb0000000000000000000000000000000000000000000000000000000000000bb8",
        "nonce": "0x1a",
        "accessList": []
      },
      "additionalContracts": [],
      "isFixedGasLimit": false
    },
    {
      "hash": "0x38a547b88e2a154478e689fc1d968ea8e5e507cab4b71f40e64e97090178bb55",
      "transactionType": "CALL",
      "contractName": "TopHat404",
      "contractAddress": "0xFbdc80810255998549A301959A4F0D3beBFC89fB",
      "function": "setWhitelist(address,bool)",
      "arguments": [
        "0xDC655F208CeCe6dA270e1c216aFEAF6c01351e1E",
        "true"
      ],
      "transaction": {
        "type": "0x02",
        "from": "0x59e8dc17aed975978c8ccb22ff69fc8954974359",
        "to": "0xfbdc80810255998549a301959a4f0d3bebfc89fb",
        "gas": "0x8ef3",
        "value": "0x0",
        "data": "0x53d6fd59000000000000000000000000dc655f208cece6da270e1c216afeaf6c01351e1e0000000000000000000000000000000000000000000000000000000000000001",
        "nonce": "0x1b",
        "accessList": []
      },
      "additionalContracts": [],
      "isFixedGasLimit": false
    },
    {
      "hash": "0x38b6a507dba1e30fbae2703a54573a7d48084580772735fe31c41acf7c84325a",
      "transactionType": "CALL",
      "contractName": "TopHat404",
      "contractAddress": "0xFbdc80810255998549A301959A4F0D3beBFC89fB",
      "function": "setWhitelist(address,bool)",
      "arguments": [
        "0xFbdc80810255998549A301959A4F0D3beBFC89fB",
        "true"
      ],
      "transaction": {
        "type": "0x02",
        "from": "0x59e8dc17aed975978c8ccb22ff69fc8954974359",
        "to": "0xfbdc80810255998549a301959a4f0d3bebfc89fb",
        "gas": "0x1090c",
        "value": "0x0",
        "data": "0x53d6fd59000000000000000000000000fbdc80810255998549a301959a4f0d3bebfc89fb0000000000000000000000000000000000000000000000000000000000000001",
        "nonce": "0x1c",
        "accessList": []
      },
      "additionalContracts": [],
      "isFixedGasLimit": false
    }
  ],
  "receipts": [],
  "libraries": [],
  "pending": [
    "0x319bcaa5ea68e11531c83a02089392e0b16e4b5f9d0b35b726e6334b19e8b8a5",
    "0xbcfd4ebe91e250aeca65de6d8b32b0a6fbbbe7d00663d949954152880f79efbd",
    "0x38a547b88e2a154478e689fc1d968ea8e5e507cab4b71f40e64e97090178bb55",
    "0x38b6a507dba1e30fbae2703a54573a7d48084580772735fe31c41acf7c84325a"
  ],
  "returns": {},
  "timestamp": 1711905139,
  "chain": 11155111,
  "multi": false,
  "commit": "8fdf7d0"
}