{
  "transactions": [
    {
      "hash": "0xe1d42881363b0300e2282fbc8ac4fc586a11e2c0033f314c7f2776c84a20ee02",
      "transactionType": "CALL",
      "contractName": "Meme",
      "contractAddress": "0x096992e8D27d0cA2a00C335400e666d1bBe12E8E",
      "function": "approve(address,uint256)",
      "arguments": [
        "0x1238536071E1c677A632429e3655c799b22cDA52",
        "1000000000000000000000000"
      ],
      "transaction": {
        "type": "0x02",
        "from": "0xb1c7f17ed88189abf269bf68a3b2ed83c5276aae",
        "to": "0x096992e8d27d0ca2a00c335400e666d1bbe12e8e",
        "gas": "0xf817",
        "value": "0x0",
        "data": "0x095ea7b30000000000000000000000001238536071e1c677a632429e3655c799b22cda5200000000000000000000000000000000000000000000d3c21bcecceda1000000",
        "nonce": "0xd8",
        "accessList": []
      },
      "additionalContracts": [],
      "isFixedGasLimit": false
    },
    {
      "hash": "0xbde6f2b4c4f23bdd37a95040a7171ade8599bc5459607d53976521e82d47ca3f",
      "transactionType": "CALL",
      "contractName": "WETH9",
      "contractAddress": "0xfFf9976782d46CC05630D1f6eBAb18b2324d6B14",
      "function": "approve(address,uint256)",
      "arguments": [
        "0x1238536071E1c677A632429e3655c799b22cDA52",
        "1000000000000000000"
      ],
      "transaction": {
        "type": "0x02",
        "from": "0xb1c7f17ed88189abf269bf68a3b2ed83c5276aae",
        "to": "0xfff9976782d46cc05630d1f6ebab18b2324d6b14",
        "gas": "0xf879",
        "value": "0x0",
        "data": "0x095ea7b30000000000000000000000001238536071e1c677a632429e3655c799b22cda520000000000000000000000000000000000000000000000000de0b6b3a7640000",
        "nonce": "0xd9",
        "accessList": []
      },
      "additionalContracts": [],
      "isFixedGasLimit": false
    }
  ],
  "receipts": [
    {
      "transactionHash": "0xe1d42881363b0300e2282fbc8ac4fc586a11e2c0033f314c7f2776c84a20ee02",
      "transactionIndex": "0x8",
      "blockHash": "0x4ac3cbc77741305bb38dee18d18ae7f32f66b5e29e92afab89a7958f98267494",
      "blockNumber": "0x563499",
      "from": "0xb1C7F17Ed88189Abf269Bf68A3B2Ed83C5276aAe",
      "to": "0x096992e8D27d0cA2a00C335400e666d1bBe12E8E",
      "cumulativeGasUsed": "0xa4d65",
      "gasUsed": "0xb39e",
      "contractAddress": null,
      "logs": [
        {
          "address": "0x096992e8D27d0cA2a00C335400e666d1bBe12E8E",
          "topics": [
            "0x8c5be1e5ebec7d5bd14f71427d1e84f3dd0314c0f7b2291e5b200ac8c7c3b925",
            "0x000000000000000000000000b1c7f17ed88189abf269bf68a3b2ed83c5276aae",
            "0x0000000000000000000000001238536071e1c677a632429e3655c799b22cda52"
          ],
          "data": "0x00000000000000000000000000000000000000000000d3c21bcecceda1000000",
          "blockHash": "0x4ac3cbc77741305bb38dee18d18ae7f32f66b5e29e92afab89a7958f98267494",
          "blockNumber": "0x563499",
          "transactionHash": "0xe1d42881363b0300e2282fbc8ac4fc586a11e2c0033f314c7f2776c84a20ee02",
          "transactionIndex": "0x8",
          "logIndex": "0x9",
          "removed": false
        }
      ],
      "status": "0x1",
      "logsBloom": "0x00000000000000000000000000000000000000000000000000000000000000000000000000000000000000000000000000000000000000000000000000200000000000000000000000000000000000000000000000000000000000000000000000000000000000000000000000000000000000010000000000000000002000000000040000000000000000010000000000000000000000000000000000000000020000000000000000000000000000000000000000000000000000000000000000000000000000000000000000000000002010000000000000000000800000000010000000000000080000000000020000000000000000000000000000000000",
      "type": "0x2",
      "effectiveGasPrice": "0xb2d8c936"
    },
    {
      "transactionHash": "0xbde6f2b4c4f23bdd37a95040a7171ade8599bc5459607d53976521e82d47ca3f",
      "transactionIndex": "0x9",
      "blockHash": "0x4ac3cbc77741305bb38dee18d18ae7f32f66b5e29e92afab89a7958f98267494",
      "blockNumber": "0x563499",
      "from": "0xb1C7F17Ed88189Abf269Bf68A3B2Ed83C5276aAe",
      "to": "0xfFf9976782d46CC05630D1f6eBAb18b2324d6B14",
      "cumulativeGasUsed": "0xb0149",
      "gasUsed": "0xb3e4",
      "contractAddress": null,
      "logs": [
        {
          "address": "0xfFf9976782d46CC05630D1f6eBAb18b2324d6B14",
          "topics": [
            "0x8c5be1e5ebec7d5bd14f71427d1e84f3dd0314c0f7b2291e5b200ac8c7c3b925",
            "0x000000000000000000000000b1c7f17ed88189abf269bf68a3b2ed83c5276aae",
            "0x0000000000000000000000001238536071e1c677a632429e3655c799b22cda52"
          ],
          "data": "0x0000000000000000000000000000000000000000000000000de0b6b3a7640000",
          "blockHash": "0x4ac3cbc77741305bb38dee18d18ae7f32f66b5e29e92afab89a7958f98267494",
          "blockNumber": "0x563499",
          "transactionHash": "0xbde6f2b4c4f23bdd37a95040a7171ade8599bc5459607d53976521e82d47ca3f",
          "transactionIndex": "0x9",
          "logIndex": "0xa",
          "removed": false
        }
      ],
      "status": "0x1",
      "logsBloom": "0x00000000000000000000000000000000000000000000000000000000000000000000000000000000000000000000000000000000000000000000000000200000000000000000000000000000000000000000000000000000000000000000000000000000000000000000000000000000000000010000000000000000002000000040040000000000000000010000000000000000000000000000000000000000020020000000000000000000000000000000000000000000000000000000000000000000000000000002000000000000002000000000000000000000800000000010000000000000000000000000000000000000000000000000000000000000",
      "type": "0x2",
      "effectiveGasPrice": "0xb2d8c936"
    }
  ],
  "libraries": [],
  "pending": [],
  "returns": {
    "0": {
      "internal_type": "contract Meme",
      "value": "0x096992e8D27d0cA2a00C335400e666d1bBe12E8E"
    }
  },
  "timestamp": 1712519067,
  "chain": 11155111,
  "multi": false,
  "commit": "f4d858d"
}