{
  "transactions": [
    {
      "hash": "0x29e11ee4ad7742e83a5676211dc6b158976382f89a03903eb6cc6b57082ded0a",
      "transactionType": "CALL",
      "contractName": null,
      "contractAddress": "0xc5D38Bcc8E0B8a7C61bef5b1cc8945118a0Fd712",
      "function": "setTokenURI(string)",
      "arguments": [
        "\"https://ipfs.io/ipfs/QmVjZW1f4X1nibQeBWQkg5yEfcZdg8CJ73mHwDMbx93CoX\""
      ],
      "transaction": {
        "type": "0x02",
        "from": "0x59e8dc17aed975978c8ccb22ff69fc8954974359",
        "to": "0xc5d38bcc8e0b8a7c61bef5b1cc8945118a0fd712",
        "gas": "0x268e2",
        "value": "0x0",
        "data": "0xe0df5b6f0000000000000000000000000000000000000000000000000000000000000020000000000000000000000000000000000000000000000000000000000000004368747470733a2f2f697066732e696f2f697066732f516d566a5a5731663458316e696251654257516b6735794566635a646738434a37336d4877444d62783933436f580000000000000000000000000000000000000000000000000000000000",
        "nonce": "0x2",
        "accessList": []
      },
      "additionalContracts": [],
      "isFixedGasLimit": false
    }
  ],
  "receipts": [
    {
      "transactionHash": "0x29e11ee4ad7742e83a5676211dc6b158976382f89a03903eb6cc6b57082ded0a",
      "transactionIndex": "0x1",
      "blockHash": "0x4987d116a36404de1386987c411151640454ccc6537a94fd8c94bc5952b3b258",
      "blockNumber": "0xa96ae",
      "from": "0x59e8dc17aed975978c8CCb22Ff69fC8954974359",
      "to": "0xc5D38Bcc8E0B8a7C61bef5b1cc8945118a0Fd712",
      "cumulativeGasUsed": "0x1cebf",
      "gasUsed": "0x1cebf",
      "contractAddress": null,
      "logs": [],
      "status": "0x1",
      "logsBloom": "0x00000000000000000000000000000000000000000000000000000000000000000000000000000000000000000000000000000000000000000000000000000000000000000000000000000000000000000000000000000000000000000000000000000000000000000000000000000000000000000000000000000000000000000000000000000000000000000000000000000000000000000000000000000000000000000000000000000000000000000000000000000000000000000000000000000000000000000000000000000000000000000000000000000000000000000000000000000000000000000000000000000000000000000000000000000000",
      "type": "0x2",
      "effectiveGasPrice": "0x989680"
    }
  ],
  "libraries": [],
  "pending": [],
  "returns": {},
  "timestamp": 1711821990,
  "chain": 666666666,
  "multi": false,
  "commit": "56a632c"
}